:100000000C942A000C943C000C943C000C943C0092
:100010000C943C000C943C000C943C000C943C0070
:100020000C943C000C943C000C943C000C94BA00E2
:100030000C943C000C943C000C94F1000C943C009B
:100040000C943C000C943C000C943C000C943C0040
:100050000C943C0011241FBECFE5D4E0DEBFCDBF21
:1000600010E0A0E6B0E001C01D92A336B107E1F7B1
:100070000E94A0000C9404010C94000080E487B955
:1000800084E886B90895806487B98FE886B980E1ED
:1000900085BF85B7806485BF369A089516B80895E0
:1000A00097B1982B97B9369A349BFECF349A24B1E6
:1000B00035B1C901089510BC96E099B98795882794
:1000C000879588618AB908955D9BFECF8CB90895A4
:1000D0005F9BFECF8CB1089520E004C05D9BFECFF6
:1000E000ECB92F5FFC01E20FF11DE081EE23B1F7C7
:1000F0005D9BFECF8AE08CB95D9BFECF8DE08CB915
:10010000089520E030E061E040E951E088B38627BF
:1001100088BB84EF91E0FA013197F1F70197D9F7A5
:1001200088B3862788BB84EF91E0FA013197F1F715
:100130000197D9F72F5F3F4F2330310539F70895E5
:1001400087B3836087BB88B388BB0E9481007894A3
:1001500010BC86E089B988E98AB9F8948091620078
:100160005D9BFECF8CB9809161005D9BFECF8CB909
:100170007894F3CF1F920F920FB60F9211242F9302
:100180003F934F935F936F937F938F939F93AF931F
:10019000BF93EF93FF938CB18093600080916000D8
:1001A000823519F0833541F405C016B880E00E940D
:1001B000430006C016B804C088B391E0892788BB05
:1001C000FF91EF91BF91AF919F918F917F916F912F
:1001D0005F914F913F912F910F900FBE0F901F9005
:1001E00018951F920F920FB60F9211248F9385B11D
:1001F0008093610084B180936200369A8F910F9052
:0C0200000FBE0F901F901895F894FFCFD0
:00000001FF
