:100000000C942A000C943C000C943C000C943C0092
:100010000C943C000C943C000C943C000C943C0070
:100020000C943C000C943C000C943C000C94A500F7
:100030000C943C000C943C000C94D3000C943C00B9
:100040000C943C000C943C000C943C000C943C0040
:100050000C943C0011241FBECFE5D4E0DEBFCDBF21
:1000600010E0A0E6B0E001C01D92A636B107E1F7AE
:100070000E947B000C9431010C94000080E487B94D
:1000800084E886B90895806C87B98FEC86B90895A5
:1000900016B8089597B1982B97B9369A349BFECF2E
:1000A000349A24B135B1C901089510BC98E099B9CA
:1000B00087958827879588618AB908955D9BFECFCB
:1000C0008CB908955F9BFECF8CB1089520E004C0E9
:1000D0005D9BFECFECB92F5FFC01E20FF11DE081CB
:1000E000EE23B1F75D9BFECF8AE08CB95D9BFECF1E
:1000F0008DE08CB9089587B3836087BB88B388BBD4
:10010000789410BC88E089B988E98AB920E030E0A9
:1001100061E040E951E088B3862788BB84EF91E035
:10012000FA013197F1F70197D9F788B3862788BB91
:1001300084EF91E0FA013197F1F70197D9F72F5F3A
:100140003F4F2330310539F7FFCF1F920F920FB683
:100150000F9211248F939F938CB1809360008091B4
:100160006000823519F0833599F410C016B81092EA
:10017000650010926100109262001092630010926C
:10018000640080EC87B98FEC86B906C016B804C04D
:1001900088B391E0892788BB9F918F910F900FBE04
:1001A0000F901F9018951F920F920FB60F92112467
:1001B0002F933F934F935F938F939F93AF93BF93EF
:1001C00080916500803111F580916100909162000D
:1001D000A0916300B091640034E0B695A79597951F
:1001E00087953A95D1F75D9BFECF8CB95D9BFECF8D
:1001F000892F990F990B8CB91092610010926200AF
:10020000109263001092640010926500809161006A
:1002100090916200A0916300B091640024B135B167
:1002200040E050E0280F391F4A1F5B1F20936100F8
:1002300030936200409363005093640080916500A6
:100240008F5F80936500369ABF91AF919F918F9198
:100250005F914F913F912F910F900FBE0F901F9084
:060260001895F894FFCF91
:00000001FF
