:100000000C942A000C943C000C943C000C943C0092
:100010000C943C000C943C000C943C000C943C0070
:100020000C943C000C943C000C943C000C94850017
:100030000C943C000C943C000C94B8000C943C00D4
:100040000C943C000C943C000C943C000C943C0040
:100050000C943C0011241FBECFE5D4E0DEBFCDBF21
:1000600010E0A0E6B0E001C01D92A536B107E1F7AF
:100070000E94CF000C94E8000C940000806C87B9BB
:100080008DEA86B985B7806185BF85B7806485BFF5
:10009000369A089516B8089597B1982B97B9369A5D
:1000A000349BFECF349A84B195B1089590B59F7773
:1000B00090BD10BC91E099B920E8829FC001112445
:1000C00088618AB98EE880BD08955D9BFECF8CB9AA
:1000D00008955F9BFECF8CB108951F93CF93DF935C
:1000E000EC0110E0FE01E10FF11D8081882321F079
:1000F0000E9465001F5FF6CF8AE00E9465008DE0D8
:10010000DF91CF911F910C9465001F920F920FB653
:100110000F9211242F933F934F935F936F937F938D
:100120008F939F93AF93BF93EF93FF938CB1809383
:10013000620080916200823529F0833541F416B85F
:10014000C09805C016B880E00E943E00C09AFF919A
:10015000EF91BF91AF919F918F917F916F915F913F
:100160004F913F912F910F900FBE0F901F901895B8
:100170001F920F920FB60F9211248F939F9384B109
:1001800095B1909361008093600081E0809364005A
:100190009F918F910F900FBE0F901F901895B89A56
:1001A000789481E00E945600809164008823E1F3F6
:1001B000109264008FB7F894C0916000D0916100F4
:1001C0008FBF8C2F0E9465008D2F0E946500ECCFA1
:0401D000F894FFCFD1
:00000001FF
